{
  "contractName": "BitCasasToken",
  "abi": [
    {
      "constant": true,
      "inputs": [],
      "name": "name",
      "outputs": [
        {
          "name": "",
          "type": "string"
        }
      ],
      "payable": false,
      "stateMutability": "view",
      "type": "function"
    },
    {
      "constant": false,
      "inputs": [
        {
          "name": "spender",
          "type": "address"
        },
        {
          "name": "value",
          "type": "uint256"
        }
      ],
      "name": "approve",
      "outputs": [
        {
          "name": "",
          "type": "bool"
        }
      ],
      "payable": false,
      "stateMutability": "nonpayable",
      "type": "function"
    },
    {
      "constant": true,
      "inputs": [],
      "name": "totalSupply",
      "outputs": [
        {
          "name": "",
          "type": "uint256"
        }
      ],
      "payable": false,
      "stateMutability": "view",
      "type": "function"
    },
    {
      "constant": false,
      "inputs": [
        {
          "name": "from",
          "type": "address"
        },
        {
          "name": "to",
          "type": "address"
        },
        {
          "name": "value",
          "type": "uint256"
        }
      ],
      "name": "transferFrom",
      "outputs": [
        {
          "name": "",
          "type": "bool"
        }
      ],
      "payable": false,
      "stateMutability": "nonpayable",
      "type": "function"
    },
    {
      "constant": true,
      "inputs": [],
      "name": "decimals",
      "outputs": [
        {
          "name": "",
          "type": "uint8"
        }
      ],
      "payable": false,
      "stateMutability": "view",
      "type": "function"
    },
    {
      "constant": false,
      "inputs": [
        {
          "name": "spender",
          "type": "address"
        },
        {
          "name": "addedValue",
          "type": "uint256"
        }
      ],
      "name": "increaseAllowance",
      "outputs": [
        {
          "name": "success",
          "type": "bool"
        }
      ],
      "payable": false,
      "stateMutability": "nonpayable",
      "type": "function"
    },
    {
      "constant": false,
      "inputs": [],
      "name": "unpause",
      "outputs": [],
      "payable": false,
      "stateMutability": "nonpayable",
      "type": "function"
    },
    {
      "constant": false,
      "inputs": [
        {
          "name": "to",
          "type": "address"
        },
        {
          "name": "value",
          "type": "uint256"
        }
      ],
      "name": "mint",
      "outputs": [
        {
          "name": "",
          "type": "bool"
        }
      ],
      "payable": false,
      "stateMutability": "nonpayable",
      "type": "function"
    },
    {
      "constant": true,
      "inputs": [
        {
          "name": "account",
          "type": "address"
        }
      ],
      "name": "isPauser",
      "outputs": [
        {
          "name": "",
          "type": "bool"
        }
      ],
      "payable": false,
      "stateMutability": "view",
      "type": "function"
    },
    {
      "constant": true,
      "inputs": [],
      "name": "paused",
      "outputs": [
        {
          "name": "",
          "type": "bool"
        }
      ],
      "payable": false,
      "stateMutability": "view",
      "type": "function"
    },
    {
      "constant": false,
      "inputs": [],
      "name": "renouncePauser",
      "outputs": [],
      "payable": false,
      "stateMutability": "nonpayable",
      "type": "function"
    },
    {
      "constant": true,
      "inputs": [
        {
          "name": "owner",
          "type": "address"
        }
      ],
      "name": "balanceOf",
      "outputs": [
        {
          "name": "",
          "type": "uint256"
        }
      ],
      "payable": false,
      "stateMutability": "view",
      "type": "function"
    },
    {
      "constant": false,
      "inputs": [
        {
          "name": "account",
          "type": "address"
        }
      ],
      "name": "addPauser",
      "outputs": [],
      "payable": false,
      "stateMutability": "nonpayable",
      "type": "function"
    },
    {
      "constant": false,
      "inputs": [],
      "name": "pause",
      "outputs": [],
      "payable": false,
      "stateMutability": "nonpayable",
      "type": "function"
    },
    {
      "constant": true,
      "inputs": [],
      "name": "symbol",
      "outputs": [
        {
          "name": "",
          "type": "string"
        }
      ],
      "payable": false,
      "stateMutability": "view",
      "type": "function"
    },
    {
      "constant": false,
      "inputs": [
        {
          "name": "account",
          "type": "address"
        }
      ],
      "name": "addMinter",
      "outputs": [],
      "payable": false,
      "stateMutability": "nonpayable",
      "type": "function"
    },
    {
      "constant": false,
      "inputs": [],
      "name": "renounceMinter",
      "outputs": [],
      "payable": false,
      "stateMutability": "nonpayable",
      "type": "function"
    },
    {
      "constant": false,
      "inputs": [
        {
          "name": "spender",
          "type": "address"
        },
        {
          "name": "subtractedValue",
          "type": "uint256"
        }
      ],
      "name": "decreaseAllowance",
      "outputs": [
        {
          "name": "success",
          "type": "bool"
        }
      ],
      "payable": false,
      "stateMutability": "nonpayable",
      "type": "function"
    },
    {
      "constant": false,
      "inputs": [
        {
          "name": "to",
          "type": "address"
        },
        {
          "name": "value",
          "type": "uint256"
        }
      ],
      "name": "transfer",
      "outputs": [
        {
          "name": "",
          "type": "bool"
        }
      ],
      "payable": false,
      "stateMutability": "nonpayable",
      "type": "function"
    },
    {
      "constant": true,
      "inputs": [
        {
          "name": "account",
          "type": "address"
        }
      ],
      "name": "isMinter",
      "outputs": [
        {
          "name": "",
          "type": "bool"
        }
      ],
      "payable": false,
      "stateMutability": "view",
      "type": "function"
    },
    {
      "constant": true,
      "inputs": [
        {
          "name": "owner",
          "type": "address"
        },
        {
          "name": "spender",
          "type": "address"
        }
      ],
      "name": "allowance",
      "outputs": [
        {
          "name": "",
          "type": "uint256"
        }
      ],
      "payable": false,
      "stateMutability": "view",
      "type": "function"
    },
    {
      "inputs": [
        {
          "name": "_name",
          "type": "string"
        },
        {
          "name": "_symbol",
          "type": "string"
        },
        {
          "name": "_decimals",
          "type": "uint8"
        }
      ],
      "payable": false,
      "stateMutability": "nonpayable",
      "type": "constructor"
    },
    {
      "anonymous": false,
      "inputs": [
        {
          "indexed": false,
          "name": "account",
          "type": "address"
        }
      ],
      "name": "Paused",
      "type": "event"
    },
    {
      "anonymous": false,
      "inputs": [
        {
          "indexed": false,
          "name": "account",
          "type": "address"
        }
      ],
      "name": "Unpaused",
      "type": "event"
    },
    {
      "anonymous": false,
      "inputs": [
        {
          "indexed": true,
          "name": "account",
          "type": "address"
        }
      ],
      "name": "PauserAdded",
      "type": "event"
    },
    {
      "anonymous": false,
      "inputs": [
        {
          "indexed": true,
          "name": "account",
          "type": "address"
        }
      ],
      "name": "PauserRemoved",
      "type": "event"
    },
    {
      "anonymous": false,
      "inputs": [
        {
          "indexed": true,
          "name": "account",
          "type": "address"
        }
      ],
      "name": "MinterAdded",
      "type": "event"
    },
    {
      "anonymous": false,
      "inputs": [
        {
          "indexed": true,
          "name": "account",
          "type": "address"
        }
      ],
      "name": "MinterRemoved",
      "type": "event"
    },
    {
      "anonymous": false,
      "inputs": [
        {
          "indexed": true,
          "name": "from",
          "type": "address"
        },
        {
          "indexed": true,
          "name": "to",
          "type": "address"
        },
        {
          "indexed": false,
          "name": "value",
          "type": "uint256"
        }
      ],
      "name": "Transfer",
      "type": "event"
    },
    {
      "anonymous": false,
      "inputs": [
        {
          "indexed": true,
          "name": "owner",
          "type": "address"
        },
        {
          "indexed": true,
          "name": "spender",
          "type": "address"
        },
        {
          "indexed": false,
          "name": "value",
          "type": "uint256"
        }
      ],
      "name": "Approval",
      "type": "event"
    }
  ],
  "bytecode": "0x60806040523480156200001157600080fd5b50604051620010503803806200105083398101604090815281516020830151918301519083019291909101908282826200005433640100000000620000be810204565b620000683364010000000062000110810204565b6005805460ff19169055825162000087906006906020860190620001f5565b5081516200009d906007906020850190620001f5565b506008805460ff191660ff92909216919091179055506200029a9350505050565b620000d960038264010000000062000d2c6200016282021704565b604051600160a060020a038216907f6ae172837ea30b801fbfcdd4108aa1d5bf8ff775444fd70256b44e6bf3dfc3f690600090a250565b6200012b60048264010000000062000d2c6200016282021704565b604051600160a060020a038216907f6719d08c1888103bea251a4ed56406bd0c3e69723c8a1686e017e7bbe159b6f890600090a250565b600160a060020a03811615156200017857600080fd5b6200018d8282640100000000620001bd810204565b156200019857600080fd5b600160a060020a0316600090815260209190915260409020805460ff19166001179055565b6000600160a060020a0382161515620001d557600080fd5b50600160a060020a03166000908152602091909152604090205460ff1690565b828054600181600116156101000203166002900490600052602060002090601f016020900481019282601f106200023857805160ff191683800117855562000268565b8280016001018555821562000268579182015b82811115620002685782518255916020019190600101906200024b565b50620002769291506200027a565b5090565b6200029791905b8082111562000276576000815560010162000281565b90565b610da680620002aa6000396000f30060806040526004361061011c5763ffffffff7c010000000000000000000000000000000000000000000000000000000060003504166306fdde038114610121578063095ea7b3146101ab57806318160ddd146101e357806323b872dd1461020a578063313ce56714610234578063395093511461025f5780633f4ba83a1461028357806340c10f191461029a57806346fbf68e146102be5780635c975abb146102df5780636ef8d66d146102f457806370a082311461030957806382dc1ec41461032a5780638456cb591461034b57806395d89b4114610360578063983b2d56146103755780639865027514610396578063a457c2d7146103ab578063a9059cbb146103cf578063aa271e1a146103f3578063dd62ed3e14610414575b600080fd5b34801561012d57600080fd5b5061013661043b565b6040805160208082528351818301528351919283929083019185019080838360005b83811015610170578181015183820152602001610158565b50505050905090810190601f16801561019d5780820380516001836020036101000a031916815260200191505b509250505060405180910390f35b3480156101b757600080fd5b506101cf600160a060020a03600435166024356104d1565b604080519115158252519081900360200190f35b3480156101ef57600080fd5b506101f86104f5565b60408051918252519081900360200190f35b34801561021657600080fd5b506101cf600160a060020a03600435811690602435166044356104fb565b34801561024057600080fd5b50610249610521565b6040805160ff9092168252519081900360200190f35b34801561026b57600080fd5b506101cf600160a060020a036004351660243561052a565b34801561028f57600080fd5b50610298610547565b005b3480156102a657600080fd5b506101cf600160a060020a03600435166024356105ab565b3480156102ca57600080fd5b506101cf600160a060020a03600435166105d4565b3480156102eb57600080fd5b506101cf6105ed565b34801561030057600080fd5b506102986105f6565b34801561031557600080fd5b506101f8600160a060020a0360043516610601565b34801561033657600080fd5b50610298600160a060020a036004351661061c565b34801561035757600080fd5b5061029861063c565b34801561036c57600080fd5b506101366106a2565b34801561038157600080fd5b50610298600160a060020a0360043516610703565b3480156103a257600080fd5b50610298610720565b3480156103b757600080fd5b506101cf600160a060020a0360043516602435610729565b3480156103db57600080fd5b506101cf600160a060020a0360043516602435610746565b3480156103ff57600080fd5b506101cf600160a060020a0360043516610763565b34801561042057600080fd5b506101f8600160a060020a0360043581169060243516610776565b60068054604080516020601f60026000196101006001881615020190951694909404938401819004810282018101909252828152606093909290918301828280156104c75780601f1061049c576101008083540402835291602001916104c7565b820191906000526020600020905b8154815290600101906020018083116104aa57829003601f168201915b5050505050905090565b60055460009060ff16156104e457600080fd5b6104ee83836107a1565b9392505050565b60025490565b60055460009060ff161561050e57600080fd5b61051984848461081f565b949350505050565b60085460ff1690565b60055460009060ff161561053d57600080fd5b6104ee83836108bc565b610550336105d4565b151561055b57600080fd5b60055460ff16151561056c57600080fd5b6005805460ff191690556040805133815290517f5db9ee0a495bf2e6ff9c91a7834c1ba4fdd244a5e8aa4e537bd38aeae4b073aa9181900360200190a1565b60006105b633610763565b15156105c157600080fd5b6105cb838361096c565b50600192915050565b60006105e760048363ffffffff610a1616565b92915050565b60055460ff1690565b6105ff33610a4d565b565b600160a060020a031660009081526020819052604090205490565b610625336105d4565b151561063057600080fd5b61063981610a95565b50565b610645336105d4565b151561065057600080fd5b60055460ff161561066057600080fd5b6005805460ff191660011790556040805133815290517f62e78cea01bee320cd4e420270b5ea74000d11b0c9f74754ebdbfc544b05a2589181900360200190a1565b60078054604080516020601f60026000196101006001881615020190951694909404938401819004810282018101909252828152606093909290918301828280156104c75780601f1061049c576101008083540402835291602001916104c7565b61070c33610763565b151561071757600080fd5b61063981610add565b6105ff33610b25565b60055460009060ff161561073c57600080fd5b6104ee8383610b6d565b60055460009060ff161561075957600080fd5b6104ee8383610bb8565b60006105e760038363ffffffff610a1616565b600160a060020a03918216600090815260016020908152604080832093909416825291909152205490565b6000600160a060020a03831615156107b857600080fd5b336000818152600160209081526040808320600160a060020a03881680855290835292819020869055805186815290519293927f8c5be1e5ebec7d5bd14f71427d1e84f3dd0314c0f7b2291e5b200ac8c7c3b925929181900390910190a350600192915050565b600160a060020a038316600090815260016020908152604080832033845290915281205482111561084f57600080fd5b600160a060020a0384166000908152600160209081526040808320338452909152902054610883908363ffffffff610bc516565b600160a060020a03851660009081526001602090815260408083203384529091529020556108b2848484610bdc565b5060019392505050565b6000600160a060020a03831615156108d357600080fd5b336000908152600160209081526040808320600160a060020a0387168452909152902054610907908363ffffffff610cce16565b336000818152600160209081526040808320600160a060020a0389168085529083529281902085905580519485525191937f8c5be1e5ebec7d5bd14f71427d1e84f3dd0314c0f7b2291e5b200ac8c7c3b925929081900390910190a350600192915050565b600160a060020a038216151561098157600080fd5b600254610994908263ffffffff610cce16565b600255600160a060020a0382166000908152602081905260409020546109c0908263ffffffff610cce16565b600160a060020a0383166000818152602081815260408083209490945583518581529351929391927fddf252ad1be2c89b69c2b068fc378daa952ba7f163c4a11628f55a4df523b3ef9281900390910190a35050565b6000600160a060020a0382161515610a2d57600080fd5b50600160a060020a03166000908152602091909152604090205460ff1690565b610a5e60048263ffffffff610ce016565b604051600160a060020a038216907fcd265ebaf09df2871cc7bd4133404a235ba12eff2041bb89d9c714a2621c7c7e90600090a250565b610aa660048263ffffffff610d2c16565b604051600160a060020a038216907f6719d08c1888103bea251a4ed56406bd0c3e69723c8a1686e017e7bbe159b6f890600090a250565b610aee60038263ffffffff610d2c16565b604051600160a060020a038216907f6ae172837ea30b801fbfcdd4108aa1d5bf8ff775444fd70256b44e6bf3dfc3f690600090a250565b610b3660038263ffffffff610ce016565b604051600160a060020a038216907fe94479a9f7e1952cc78f2d6baab678adc1b772d936c6583def489e524cb6669290600090a250565b6000600160a060020a0383161515610b8457600080fd5b336000908152600160209081526040808320600160a060020a0387168452909152902054610907908363ffffffff610bc516565b60006105cb338484610bdc565b60008083831115610bd557600080fd5b5050900390565b600160a060020a038316600090815260208190526040902054811115610c0157600080fd5b600160a060020a0382161515610c1657600080fd5b600160a060020a038316600090815260208190526040902054610c3f908263ffffffff610bc516565b600160a060020a038085166000908152602081905260408082209390935590841681522054610c74908263ffffffff610cce16565b600160a060020a038084166000818152602081815260409182902094909455805185815290519193928716927fddf252ad1be2c89b69c2b068fc378daa952ba7f163c4a11628f55a4df523b3ef92918290030190a3505050565b6000828201838110156104ee57600080fd5b600160a060020a0381161515610cf557600080fd5b610cff8282610a16565b1515610d0a57600080fd5b600160a060020a0316600090815260209190915260409020805460ff19169055565b600160a060020a0381161515610d4157600080fd5b610d4b8282610a16565b15610d5557600080fd5b600160a060020a0316600090815260209190915260409020805460ff191660011790555600a165627a7a72305820e91649ca915c2dc9900542e873af22ebd2a755cfa0f1dfefab33e30366f6c2790029",
  "source": "pragma solidity 0.4.24;\n\nimport \"openzeppelin-solidity/contracts/token/ERC20/ERC20Detailed.sol\";\nimport \"openzeppelin-solidity/contracts/token/ERC20/ERC20Mintable.sol\";\nimport \"openzeppelin-solidity/contracts/token/ERC20/ERC20Pausable.sol\";\n\ncontract BitCasasToken is ERC20Mintable, ERC20Pausable, ERC20Detailed {\n    constructor(string _name, string _symbol, uint8 _decimals)\n        ERC20Detailed(_name, _symbol, _decimals)\n        public\n    {\n\n    }\n}",
  "sourcePath": "/Users/rairre160/workspace/localhost/bitcasas_mvp/bcat_tokens/contracts/BitCasasToken.sol",
  "compiler": {
    "name": "solc",
    "version": "0.4.24+commit.e67f0147.Emscripten.clang"
  },
  "schemaVersion": "2.0.0",
  "updatedAt": "2018-12-30T00:21:12.326Z"
}